{
  "_format": "hh-sol-artifact-1",
  "contractName": "SongRegistry",
  "sourceName": "song-registry-contracts/contracts/songRegistry.sol",
  "abi": [
    {
      "inputs": [],
      "stateMutability": "nonpayable",
      "type": "constructor"
    },
    {
      "inputs": [],
      "name": "getNumberOfSongs",
      "outputs": [
        {
          "internalType": "uint256",
          "name": "",
          "type": "uint256"
        }
      ],
      "stateMutability": "view",
      "type": "function"
    },
    {
      "inputs": [
        {
          "internalType": "string",
          "name": "_title",
          "type": "string"
        },
        {
          "internalType": "string",
          "name": "_url",
          "type": "string"
        },
        {
          "internalType": "uint256",
          "name": "_price",
          "type": "uint256"
        }
      ],
      "name": "registerSong",
      "outputs": [],
      "stateMutability": "nonpayable",
      "type": "function"
    },
    {
      "inputs": [
        {
          "internalType": "uint256",
          "name": "",
          "type": "uint256"
        }
      ],
      "name": "songs",
      "outputs": [
        {
          "internalType": "string",
          "name": "title",
          "type": "string"
        },
        {
          "internalType": "address",
          "name": "owner",
          "type": "address"
        },
        {
          "internalType": "string",
          "name": "url",
          "type": "string"
        },
        {
          "internalType": "uint256",
          "name": "price",
          "type": "uint256"
        }
      ],
      "stateMutability": "view",
      "type": "function"
    }
  ],
  "bytecode": "0x608060405234801561001057600080fd5b506109ae806100206000396000f3fe608060405234801561001057600080fd5b50600436106100415760003560e01c8063304cff301461004657806330753c7a14610079578063a8ec42d814610095575b600080fd5b610060600480360381019061005b919061035f565b6100b3565b604051610070949392919061046c565b60405180910390f35b610093600480360381019061008e91906105f4565b610223565b005b61009d610309565b6040516100aa919061067f565b60405180910390f35b600081815481106100c357600080fd5b90600052602060002090600402016000915090508060000180546100e6906106c9565b80601f0160208091040260200160405190810160405280929190818152602001828054610112906106c9565b801561015f5780601f106101345761010080835404028352916020019161015f565b820191906000526020600020905b81548152906001019060200180831161014257829003601f168201915b5050505050908060010160009054906101000a900473ffffffffffffffffffffffffffffffffffffffff169080600201805461019a906106c9565b80601f01602080910402602001604051908101604052809291908181526020018280546101c6906106c9565b80156102135780601f106101e857610100808354040283529160200191610213565b820191906000526020600020905b8154815290600101906020018083116101f657829003601f168201915b5050505050908060030154905084565b600060405180608001604052808581526020013373ffffffffffffffffffffffffffffffffffffffff168152602001848152602001838152509080600181540180825580915050600190039060005260206000209060040201600090919091909150600082015181600001908161029a91906108a6565b5060208201518160010160006101000a81548173ffffffffffffffffffffffffffffffffffffffff021916908373ffffffffffffffffffffffffffffffffffffffff16021790555060408201518160020190816102f791906108a6565b50606082015181600301555050505050565b60008080549050905090565b6000604051905090565b600080fd5b600080fd5b6000819050919050565b61033c81610329565b811461034757600080fd5b50565b60008135905061035981610333565b92915050565b6000602082840312156103755761037461031f565b5b60006103838482850161034a565b91505092915050565b600081519050919050565b600082825260208201905092915050565b60005b838110156103c65780820151818401526020810190506103ab565b60008484015250505050565b6000601f19601f8301169050919050565b60006103ee8261038c565b6103f88185610397565b93506104088185602086016103a8565b610411816103d2565b840191505092915050565b600073ffffffffffffffffffffffffffffffffffffffff82169050919050565b60006104478261041c565b9050919050565b6104578161043c565b82525050565b61046681610329565b82525050565b6000608082019050818103600083015261048681876103e3565b9050610495602083018661044e565b81810360408301526104a781856103e3565b90506104b6606083018461045d565b95945050505050565b600080fd5b600080fd5b7f4e487b7100000000000000000000000000000000000000000000000000000000600052604160045260246000fd5b610501826103d2565b810181811067ffffffffffffffff821117156105205761051f6104c9565b5b80604052505050565b6000610533610315565b905061053f82826104f8565b919050565b600067ffffffffffffffff82111561055f5761055e6104c9565b5b610568826103d2565b9050602081019050919050565b82818337600083830152505050565b600061059761059284610544565b610529565b9050828152602081018484840111156105b3576105b26104c4565b5b6105be848285610575565b509392505050565b600082601f8301126105db576105da6104bf565b5b81356105eb848260208601610584565b91505092915050565b60008060006060848603121561060d5761060c61031f565b5b600084013567ffffffffffffffff81111561062b5761062a610324565b5b610637868287016105c6565b935050602084013567ffffffffffffffff81111561065857610657610324565b5b610664868287016105c6565b92505060406106758682870161034a565b9150509250925092565b6000602082019050610694600083018461045d565b92915050565b7f4e487b7100000000000000000000000000000000000000000000000000000000600052602260045260246000fd5b600060028204905060018216806106e157607f821691505b6020821081036106f4576106f361069a565b5b50919050565b60008190508160005260206000209050919050565b60006020601f8301049050919050565b600082821b905092915050565b60006008830261075c7fffffffffffffffffffffffffffffffffffffffffffffffffffffffffffffffff8261071f565b610766868361071f565b95508019841693508086168417925050509392505050565b6000819050919050565b60006107a361079e61079984610329565b61077e565b610329565b9050919050565b6000819050919050565b6107bd83610788565b6107d16107c9826107aa565b84845461072c565b825550505050565b600090565b6107e66107d9565b6107f18184846107b4565b505050565b5b818110156108155761080a6000826107de565b6001810190506107f7565b5050565b601f82111561085a5761082b816106fa565b6108348461070f565b81016020851015610843578190505b61085761084f8561070f565b8301826107f6565b50505b505050565b600082821c905092915050565b600061087d6000198460080261085f565b1980831691505092915050565b6000610896838361086c565b9150826002028217905092915050565b6108af8261038c565b67ffffffffffffffff8111156108c8576108c76104c9565b5b6108d282546106c9565b6108dd828285610819565b600060209050601f83116001811461091057600084156108fe578287015190505b610908858261088a565b865550610970565b601f19841661091e866106fa565b60005b8281101561094657848901518255600182019150602085019450602081019050610921565b86831015610963578489015161095f601f89168261086c565b8355505b6001600288020188555050505b50505050505056fea2646970667358221220a1fdc587185816be20e4917b9ff72f3273abbb234e278db13f9123bd4c5f7bd664736f6c63430008140033",
  "linkReferences": {},
  "deployedLinkReferences": {}
}